{"contracts/Task.sol":{"Task":{"abi":[{"inputs":[{"internalType":"string","name":"_description","type":"string"},{"internalType":"uint256","name":"_pricePerExecution","type":"uint256"},{"internalType":"uint256","name":"_incentiveBlocksDuration","type":"uint256"}],"stateMutability":"payable","type":"constructor"},{"inputs":[],"name":"bestAgent","outputs":[{"internalType":"address","name":"","type":"address"}],"stateMutability":"view","type":"function"},{"inputs":[],"name":"bestAgentOwner","outputs":[{"internalType":"address payable","name":"","type":"address"}],"stateMutability":"view","type":"function"},{"inputs":[],"name":"bestScore","outputs":[{"internalType":"uint256","name":"","type":"uint256"}],"stateMutability":"view","type":"function"},{"inputs":[],"name":"creationBlock","outputs":[{"internalType":"uint256","name":"","type":"uint256"}],"stateMutability":"view","type":"function"},{"inputs":[],"name":"description","outputs":[{"internalType":"string","name":"","type":"string"}],"stateMutability":"view","type":"function"},{"inputs":[{"internalType":"address","name":"agent","type":"address"}],"name":"evaluateAgent","outputs":[{"internalType":"uint256","name":"","type":"uint256"}],"stateMutability":"view","type":"function"},{"inputs":[],"name":"incentive","outputs":[{"internalType":"uint256","name":"","type":"uint256"}],"stateMutability":"view","type":"function"},{"inputs":[],"name":"incentiveBlocksDuration","outputs":[{"internalType":"uint256","name":"","type":"uint256"}],"stateMutability":"view","type":"function"},{"inputs":[],"name":"incentivesFullyPaid","outputs":[{"internalType":"bool","name":"","type":"bool"}],"stateMutability":"view","type":"function"},{"inputs":[],"name":"owner","outputs":[{"internalType":"address","name":"","type":"address"}],"stateMutability":"view","type":"function"},{"inputs":[{"internalType":"string","name":"_input","type":"string"}],"name":"parseString","outputs":[{"internalType":"uint256","name":"","type":"uint256"}],"stateMutability":"pure","type":"function"},{"inputs":[],"name":"pricePerExecution","outputs":[{"internalType":"uint256","name":"","type":"uint256"}],"stateMutability":"view","type":"function"},{"inputs":[],"name":"remainingIncentive","outputs":[{"internalType":"uint256","name":"","type":"uint256"}],"stateMutability":"view","type":"function"},{"inputs":[{"internalType":"address","name":"_criticLLMAddress","type":"address"}],"name":"setCriticAddress","outputs":[],"stateMutability":"nonpayable","type":"function"},{"inputs":[],"name":"submissionBlock","outputs":[{"internalType":"uint256","name":"","type":"uint256"}],"stateMutability":"view","type":"function"},{"inputs":[{"internalType":"address","name":"_agent","type":"address"},{"internalType":"address","name":"_owner","type":"address"}],"name":"submitAgent","outputs":[],"stateMutability":"payable","type":"function"},{"inputs":[{"internalType":"uint256","name":"","type":"uint256"}],"name":"testCases","outputs":[{"internalType":"string","name":"","type":"string"}],"stateMutability":"view","type":"function"},{"inputs":[{"internalType":"string","name":"additionalInstructions","type":"string"}],"name":"useAgent","outputs":[{"internalType":"string","name":"","type":"string"}],"stateMutability":"payable","type":"function"}],"evm":{"bytecode":{"linkReferences":{},"object":"60806040526040516200203c3803806200203c833981810160405281019062000029919062000289565b336000806101000a81548173ffffffffffffffffffffffffffffffffffffffff021916908373ffffffffffffffffffffffffffffffffffffffff16021790555082600590816200007a919062000545565b5081600b81905550806008819055503460068190555043600c819055506000600960006101000a81548160ff0219169083151502179055505050506200062c565b6000604051905090565b600080fd5b600080fd5b600080fd5b600080fd5b6000601f19601f8301169050919050565b7f4e487b7100000000000000000000000000000000000000000000000000000000600052604160045260246000fd5b6200012482620000d9565b810181811067ffffffffffffffff82111715620001465762000145620000ea565b5b80604052505050565b60006200015b620000bb565b905062000169828262000119565b919050565b600067ffffffffffffffff8211156200018c576200018b620000ea565b5b6200019782620000d9565b9050602081019050919050565b60005b83811015620001c4578082015181840152602081019050620001a7565b60008484015250505050565b6000620001e7620001e1846200016e565b6200014f565b905082815260208101848484011115620002065762000205620000d4565b5b62000213848285620001a4565b509392505050565b600082601f830112620002335762000232620000cf565b5b815162000245848260208601620001d0565b91505092915050565b6000819050919050565b62000263816200024e565b81146200026f57600080fd5b50565b600081519050620002838162000258565b92915050565b600080600060608486031215620002a557620002a4620000c5565b5b600084015167ffffffffffffffff811115620002c657620002c5620000ca565b5b620002d4868287016200021b565b9350506020620002e78682870162000272565b9250506040620002fa8682870162000272565b9150509250925092565b600081519050919050565b7f4e487b7100000000000000000000000000000000000000000000000000000000600052602260045260246000fd5b600060028204905060018216806200035757607f821691505b6020821081036200036d576200036c6200030f565b5b50919050565b60008190508160005260206000209050919050565b60006020601f8301049050919050565b600082821b905092915050565b600060088302620003d77fffffffffffffffffffffffffffffffffffffffffffffffffffffffffffffffff8262000398565b620003e3868362000398565b95508019841693508086168417925050509392505050565b6000819050919050565b600062000426620004206200041a846200024e565b620003fb565b6200024e565b9050919050565b6000819050919050565b620004428362000405565b6200045a62000451826200042d565b848454620003a5565b825550505050565b600090565b6200047162000462565b6200047e81848462000437565b505050565b5b81811015620004a6576200049a60008262000467565b60018101905062000484565b5050565b601f821115620004f557620004bf8162000373565b620004ca8462000388565b81016020851015620004da578190505b620004f2620004e98562000388565b83018262000483565b50505b505050565b600082821c905092915050565b60006200051a60001984600802620004fa565b1980831691505092915050565b600062000535838362000507565b9150826002028217905092915050565b620005508262000304565b67ffffffffffffffff8111156200056c576200056b620000ea565b5b6200057882546200033e565b62000585828285620004aa565b600060209050601f831160018114620005bd5760008415620005a8578287015190505b620005b4858262000527565b86555062000624565b601f198416620005cd8662000373565b60005b82811015620005f757848901518255600182019150602085019450602081019050620005d0565b8683101562000617578489015162000613601f89168262000507565b8355505b6001600288020188555050505b505050505050565b611a00806200063c6000396000f3fe6080604052600436106101095760003560e01c8063609e67b011610095578063bc99cbd011610064578063bc99cbd01461035f578063c8dec8151461038a578063d90e5024146103a6578063ec1a9bd8146103d1578063ffe41b271461040157610109565b8063609e67b0146102a15780637284e416146102de5780637c1c3439146103095780638da5cb5b1461033457610109565b806317634514116100dc57806317634514146101cc5780631aee3531146101f75780631d4632ac146102205780633af874d71461024b578063413350bd1461027657610109565b806301bc246a1461010e57806303cd7834146101395780630af2f42414610164578063110754991461018f575b600080fd5b34801561011a57600080fd5b5061012361043e565b6040516101309190610d02565b60405180910390f35b34801561014557600080fd5b5061014e610444565b60405161015b9190610d02565b60405180910390f35b34801561017057600080fd5b5061017961044a565b6040516101869190610d02565b60405180910390f35b34801561019b57600080fd5b506101b660048036038101906101b19190610e77565b610450565b6040516101c39190610d02565b60405180910390f35b3480156101d857600080fd5b506101e1610504565b6040516101ee9190610d02565b60405180910390f35b34801561020357600080fd5b5061021e60048036038101906102199190610f1e565b61050a565b005b34801561022c57600080fd5b506102356105de565b6040516102429190610d02565b60405180910390f35b34801561025757600080fd5b506102606105e4565b60405161026d9190610d02565b60405180910390f35b34801561028257600080fd5b5061028b6105ea565b6040516102989190610d02565b60405180910390f35b3480156102ad57600080fd5b506102c860048036038101906102c39190610f77565b6105f0565b6040516102d59190611023565b60405180910390f35b3480156102ea57600080fd5b506102f361069c565b6040516103009190611023565b60405180910390f35b34801561031557600080fd5b5061031e61072a565b60405161032b9190611066565b60405180910390f35b34801561034057600080fd5b50610349610750565b6040516103569190611090565b60405180910390f35b34801561036b57600080fd5b50610374610774565b60405161038191906110c6565b60405180910390f35b6103a4600480360381019061039f91906110e1565b610787565b005b3480156103b257600080fd5b506103bb6109c4565b6040516103c89190611090565b60405180910390f35b6103eb60048036038101906103e69190610e77565b6109ea565b6040516103f89190611023565b60405180910390f35b34801561040d57600080fd5b5061042860048036038101906104239190610f1e565b610afa565b6040516104359190610d02565b60405180910390f35b60085481565b600b5481565b60025481565b60008060009050600083905060005b81518110156104f95760008183516104779190611150565b9050600083838151811061048e5761048d611184565b5b602001015160f81c60f81b905060008160f81c9050600060308260ff166104b59190611150565b90506001846104c49190611150565b600a6104d091906112e6565b816104db9190611331565b876104e69190611373565b965050505050808060010191505061045f565b508192505050919050565b600c5481565b600360009054906101000a900473ffffffffffffffffffffffffffffffffffffffff1673ffffffffffffffffffffffffffffffffffffffff163373ffffffffffffffffffffffffffffffffffffffff161461059a576040517f08c379a000000000000000000000000000000000000000000000000000000000815260040161059190611419565b60405180910390fd5b80600d60006101000a81548173ffffffffffffffffffffffffffffffffffffffff021916908373ffffffffffffffffffffffffffffffffffffffff16021790555050565b60065481565b60075481565b60045481565b600a818154811061060057600080fd5b90600052602060002001600091509050805461061b90611468565b80601f016020809104026020016040519081016040528092919081815260200182805461064790611468565b80156106945780601f1061066957610100808354040283529160200191610694565b820191906000526020600020905b81548152906001019060200180831161067757829003601f168201915b505050505081565b600580546106a990611468565b80601f01602080910402602001604051908101604052809291908181526020018280546106d590611468565b80156107225780601f106106f757610100808354040283529160200191610722565b820191906000526020600020905b81548152906001019060200180831161070557829003601f168201915b505050505081565b600360009054906101000a900473ffffffffffffffffffffffffffffffffffffffff1681565b60008054906101000a900473ffffffffffffffffffffffffffffffffffffffff1681565b600960009054906101000a900460ff1681565b600061079283610afa565b9050600073ffffffffffffffffffffffffffffffffffffffff16600160009054906101000a900473ffffffffffffffffffffffffffffffffffffffff1673ffffffffffffffffffffffffffffffffffffffff160361087f5782600160006101000a81548173ffffffffffffffffffffffffffffffffffffffff021916908373ffffffffffffffffffffffffffffffffffffffff1602179055508060028190555081600360006101000a81548173ffffffffffffffffffffffffffffffffffffffff021916908373ffffffffffffffffffffffffffffffffffffffff160217905550436004819055506109bf565b6002548111156109be57600960009054906101000a900460ff1661092d5760006108a7610c77565b905080600760008282546108bb9190611150565b92505081905550600360009054906101000a900473ffffffffffffffffffffffffffffffffffffffff1673ffffffffffffffffffffffffffffffffffffffff166108fc829081150290604051600060405180830381858888f1935050505015801561092a573d6000803e3d6000fd5b50505b82600160006101000a81548173ffffffffffffffffffffffffffffffffffffffff021916908373ffffffffffffffffffffffffffffffffffffffff1602179055508060028190555081600360006101000a81548173ffffffffffffffffffffffffffffffffffffffff021916908373ffffffffffffffffffffffffffffffffffffffff160217905550436004819055505b5b505050565b600160009054906101000a900473ffffffffffffffffffffffffffffffffffffffff1681565b6060600b543414610a30576040517f08c379a0000000000000000000000000000000000000000000000000000000008152600401610a27906114e5565b60405180910390fd5b600160009054906101000a900473ffffffffffffffffffffffffffffffffffffffff1673ffffffffffffffffffffffffffffffffffffffff1663469c8110600584604051602001610a82929190611697565b6040516020818303038152906040526040518263ffffffff1660e01b8152600401610aad9190611023565b600060405180830381865afa158015610aca573d6000803e3d6000fd5b505050506040513d6000823e3d601f19601f82011682018060405250810190610af39190611745565b9050919050565b6000808273ffffffffffffffffffffffffffffffffffffffff1663469c81106005604051602001610b2b91906117b4565b6040516020818303038152906040526040518263ffffffff1660e01b8152600401610b569190611023565b600060405180830381865afa158015610b73573d6000803e3d6000fd5b505050506040513d6000823e3d601f19601f82011682018060405250810190610b9c9190611745565b90506000600d60009054906101000a900473ffffffffffffffffffffffffffffffffffffffff1673ffffffffffffffffffffffffffffffffffffffff1663469c8110600584604051602001610bf2929190611930565b6040516020818303038152906040526040518263ffffffff1660e01b8152600401610c1d9190611023565b600060405180830381865afa158015610c3a573d6000803e3d6000fd5b505050506040513d6000823e3d601f19601f82011682018060405250810190610c639190611745565b9050610c6e81610450565b92505050919050565b6000600854600c5443610c8a9190611150565b1115610cb5576001600960006101000a81548160ff0219169083151502179055506007549050610ce6565b600060045443610cc59190611150565b905060085481610cd59190611999565b600654610ce29190611331565b9150505b90565b6000819050919050565b610cfc81610ce9565b82525050565b6000602082019050610d176000830184610cf3565b92915050565b6000604051905090565b600080fd5b600080fd5b600080fd5b600080fd5b6000601f19601f8301169050919050565b7f4e487b7100000000000000000000000000000000000000000000000000000000600052604160045260246000fd5b610d8482610d3b565b810181811067ffffffffffffffff82111715610da357610da2610d4c565b5b80604052505050565b6000610db6610d1d565b9050610dc28282610d7b565b919050565b600067ffffffffffffffff821115610de257610de1610d4c565b5b610deb82610d3b565b9050602081019050919050565b82818337600083830152505050565b6000610e1a610e1584610dc7565b610dac565b905082815260208101848484011115610e3657610e35610d36565b5b610e41848285610df8565b509392505050565b600082601f830112610e5e57610e5d610d31565b5b8135610e6e848260208601610e07565b91505092915050565b600060208284031215610e8d57610e8c610d27565b5b600082013567ffffffffffffffff811115610eab57610eaa610d2c565b5b610eb784828501610e49565b91505092915050565b600073ffffffffffffffffffffffffffffffffffffffff82169050919050565b6000610eeb82610ec0565b9050919050565b610efb81610ee0565b8114610f0657600080fd5b50565b600081359050610f1881610ef2565b92915050565b600060208284031215610f3457610f33610d27565b5b6000610f4284828501610f09565b91505092915050565b610f5481610ce9565b8114610f5f57600080fd5b50565b600081359050610f7181610f4b565b92915050565b600060208284031215610f8d57610f8c610d27565b5b6000610f9b84828501610f62565b91505092915050565b600081519050919050565b600082825260208201905092915050565b60005b83811015610fde578082015181840152602081019050610fc3565b60008484015250505050565b6000610ff582610fa4565b610fff8185610faf565b935061100f818560208601610fc0565b61101881610d3b565b840191505092915050565b6000602082019050818103600083015261103d8184610fea565b905092915050565b600061105082610ec0565b9050919050565b61106081611045565b82525050565b600060208201905061107b6000830184611057565b92915050565b61108a81610ee0565b82525050565b60006020820190506110a56000830184611081565b92915050565b60008115159050919050565b6110c0816110ab565b82525050565b60006020820190506110db60008301846110b7565b92915050565b600080604083850312156110f8576110f7610d27565b5b600061110685828601610f09565b925050602061111785828601610f09565b9150509250929050565b7f4e487b7100000000000000000000000000000000000000000000000000000000600052601160045260246000fd5b600061115b82610ce9565b915061116683610ce9565b925082820390508181111561117e5761117d611121565b5b92915050565b7f4e487b7100000000000000000000000000000000000000000000000000000000600052603260045260246000fd5b60008160011c9050919050565b6000808291508390505b600185111561120a578086048111156111e6576111e5611121565b5b60018516156111f55780820291505b8081029050611203856111b3565b94506111ca565b94509492505050565b60008261122357600190506112df565b8161123157600090506112df565b8160018114611247576002811461125157611280565b60019150506112df565b60ff84111561126357611262611121565b5b8360020a91508482111561127a57611279611121565b5b506112df565b5060208310610133831016604e8410600b84101617156112b55782820a9050838111156112b0576112af611121565b5b6112df565b6112c284848460016111c0565b925090508184048111156112d9576112d8611121565b5b81810290505b9392505050565b60006112f182610ce9565b91506112fc83610ce9565b92506113297fffffffffffffffffffffffffffffffffffffffffffffffffffffffffffffffff8484611213565b905092915050565b600061133c82610ce9565b915061134783610ce9565b925082820261135581610ce9565b9150828204841483151761136c5761136b611121565b5b5092915050565b600061137e82610ce9565b915061138983610ce9565b92508282019050808211156113a1576113a0611121565b5b92915050565b7f4f6e6c7920746865206f776e6572206f6620746865205461736b2063616e206360008201527f616c6c20746869732066756e6374696f6e000000000000000000000000000000602082015250565b6000611403603183610faf565b915061140e826113a7565b604082019050919050565b60006020820190508181036000830152611432816113f6565b9050919050565b7f4e487b7100000000000000000000000000000000000000000000000000000000600052602260045260246000fd5b6000600282049050600182168061148057607f821691505b60208210810361149357611492611439565b5b50919050565b7f496e636f7272656374207061796d656e7420616d6f756e742073656e74000000600082015250565b60006114cf601d83610faf565b91506114da82611499565b602082019050919050565b600060208201905081810360008301526114fe816114c2565b9050919050565b7f5468697320697320796f7572207461736b3a2000000000000000000000000000815250565b600081905092915050565b60008190508160005260206000209050919050565b6000815461155881611468565b611562818661152b565b9450600182166000811461157d5760018114611592576115c5565b60ff19831686528115158202860193506115c5565b61159b85611536565b60005b838110156115bd5781548189015260018201915060208101905061159e565b838801955050505b50505092915050565b7f0a546865736520617265206164646974696f6e616c20696e737472756374696f60008201527f6e7320616e6420636f6e73747261696e747320796f75206d757374206f62657960208201527f3a00000000000000000000000000000000000000000000000000000000000000604082015250565b600061165060418361152b565b915061165b826115ce565b604182019050919050565b600061167182610fa4565b61167b818561152b565b935061168b818560208601610fc0565b80840191505092915050565b60006116a282611505565b6013820191506116b2828561154b565b91506116bd82611643565b91506116c98284611666565b91508190509392505050565b60006116e86116e384610dc7565b610dac565b90508281526020810184848401111561170457611703610d36565b5b61170f848285610fc0565b509392505050565b600082601f83011261172c5761172b610d31565b5b815161173c8482602086016116d5565b91505092915050565b60006020828403121561175b5761175a610d27565b5b600082015167ffffffffffffffff81111561177957611778610d2c565b5b61178584828501611717565b91505092915050565b7f436f6d706c6574652074686520666f6c6c6f77696e67207461736b3a20000000815250565b60006117bf8261178e565b601d820191506117cf828461154b565b915081905092915050565b7f4576616c7561746520616e206167656e74277320736f6c7574696f6e20746f2060008201527f74686520666f6c6c6f77696e67207461736b3a20000000000000000000000000602082015250565b600061183660348361152b565b9150611841826117da565b603482019050919050565b7f0a52657475726e206f6e6c79206120677261646520696e2074686520666f726d60008201527f206f6620616e20696e7465676572206265747765656e203020616e642031303060208201527f207768657265203020726570726573656e74732061207465727269626c65206f60408201527f757470757420616e642031303020697320706572666563742e2054686973206960608201527f7320746865206167656e74207375626d697373696f6e3a000000000000000000608082015250565b600061191a60978361152b565b91506119258261184c565b609782019050919050565b600061193b82611829565b9150611947828561154b565b91506119528261190d565b915061195e8284611666565b91508190509392505050565b7f4e487b7100000000000000000000000000000000000000000000000000000000600052601260045260246000fd5b60006119a482610ce9565b91506119af83610ce9565b9250826119bf576119be61196a565b5b82820490509291505056fea26469706673582212206e9ac64b52e8a221a75b98140da751b85b4e38bca7100ebe400b9d4e3e78606564736f6c63430008180033","opcodes":"PUSH1 0x80 PUSH1 0x40 MSTORE PUSH1 0x40 MLOAD PUSH3 0x203C CODESIZE SUB DUP1 PUSH3 0x203C DUP4 CODECOPY DUP2 DUP2 ADD PUSH1 0x40 MSTORE DUP2 ADD SWAP1 PUSH3 0x29 SWAP2 SWAP1 PUSH3 0x289 JUMP JUMPDEST CALLER PUSH1 0x0 DUP1 PUSH2 0x100 EXP DUP2 SLOAD DUP2 PUSH20 0xFFFFFFFFFFFFFFFFFFFFFFFFFFFFFFFFFFFFFFFF MUL NOT AND SWAP1 DUP4 PUSH20 0xFFFFFFFFFFFFFFFFFFFFFFFFFFFFFFFFFFFFFFFF AND MUL OR SWAP1 SSTORE POP DUP3 PUSH1 0x5 SWAP1 DUP2 PUSH3 0x7A SWAP2 SWAP1 PUSH3 0x545 JUMP JUMPDEST POP DUP2 PUSH1 0xB DUP2 SWAP1 SSTORE POP DUP1 PUSH1 0x8 DUP2 SWAP1 SSTORE POP CALLVALUE PUSH1 0x6 DUP2 SWAP1 SSTORE POP NUMBER PUSH1 0xC DUP2 SWAP1 SSTORE POP PUSH1 0x0 PUSH1 0x9 PUSH1 0x0 PUSH2 0x100 EXP DUP2 SLOAD DUP2 PUSH1 0xFF MUL NOT AND SWAP1 DUP4 ISZERO ISZERO MUL OR SWAP1 SSTORE POP POP POP POP PUSH3 0x62C JUMP JUMPDEST PUSH1 0x0 PUSH1 0x40 MLOAD SWAP1 POP SWAP1 JUMP JUMPDEST PUSH1 0x0 DUP1 REVERT JUMPDEST PUSH1 0x0 DUP1 REVERT JUMPDEST PUSH1 0x0 DUP1 REVERT JUMPDEST PUSH1 0x0 DUP1 REVERT JUMPDEST PUSH1 0x0 PUSH1 0x1F NOT PUSH1 0x1F DUP4 ADD AND SWAP1 POP SWAP2 SWAP1 POP JUMP JUMPDEST PUSH32 0x4E487B7100000000000000000000000000000000000000000000000000000000 PUSH1 0x0 MSTORE PUSH1 0x41 PUSH1 0x4 MSTORE PUSH1 0x24 PUSH1 0x0 REVERT JUMPDEST PUSH3 0x124 DUP3 PUSH3 0xD9 JUMP JUMPDEST DUP2 ADD DUP2 DUP2 LT PUSH8 0xFFFFFFFFFFFFFFFF DUP3 GT OR ISZERO PUSH3 0x146 JUMPI PUSH3 0x145 PUSH3 0xEA JUMP JUMPDEST JUMPDEST DUP1 PUSH1 0x40 MSTORE POP POP POP JUMP JUMPDEST PUSH1 0x0 PUSH3 0x15B PUSH3 0xBB JUMP JUMPDEST SWAP1 POP PUSH3 0x169 DUP3 DUP3 PUSH3 0x119 JUMP JUMPDEST SWAP2 SWAP1 POP JUMP JUMPDEST PUSH1 0x0 PUSH8 0xFFFFFFFFFFFFFFFF DUP3 GT ISZERO PUSH3 0x18C JUMPI PUSH3 0x18B PUSH3 0xEA JUMP JUMPDEST JUMPDEST PUSH3 0x197 DUP3 PUSH3 0xD9 JUMP JUMPDEST SWAP1 POP PUSH1 0x20 DUP2 ADD SWAP1 POP SWAP2 SWAP1 POP JUMP JUMPDEST PUSH1 0x0 JUMPDEST DUP4 DUP2 LT ISZERO PUSH3 0x1C4 JUMPI DUP1 DUP3 ADD MLOAD DUP2 DUP5 ADD MSTORE PUSH1 0x20 DUP2 ADD SWAP1 POP PUSH3 0x1A7 JUMP JUMPDEST PUSH1 0x0 DUP5 DUP5 ADD MSTORE POP POP POP POP JUMP JUMPDEST PUSH1 0x0 PUSH3 0x1E7 PUSH3 0x1E1 DUP5 PUSH3 0x16E JUMP JUMPDEST PUSH3 0x14F JUMP JUMPDEST SWAP1 POP DUP3 DUP2 MSTORE PUSH1 0x20 DUP2 ADD DUP5 DUP5 DUP5 ADD GT ISZERO PUSH3 0x206 JUMPI PUSH3 0x205 PUSH3 0xD4 JUMP JUMPDEST JUMPDEST PUSH3 0x213 DUP5 DUP3 DUP6 PUSH3 0x1A4 JUMP JUMPDEST POP SWAP4 SWAP3 POP POP POP JUMP JUMPDEST PUSH1 0x0 DUP3 PUSH1 0x1F DUP4 ADD SLT PUSH3 0x233 JUMPI PUSH3 0x232 PUSH3 0xCF JUMP JUMPDEST JUMPDEST DUP2 MLOAD PUSH3 0x245 DUP5 DUP3 PUSH1 0x20 DUP7 ADD PUSH3 0x1D0 JUMP JUMPDEST SWAP2 POP POP SWAP3 SWAP2 POP POP JUMP JUMPDEST PUSH1 0x0 DUP2 SWAP1 POP SWAP2 SWAP1 POP JUMP JUMPDEST PUSH3 0x263 DUP2 PUSH3 0x24E JUMP JUMPDEST DUP2 EQ PUSH3 0x26F JUMPI PUSH1 0x0 DUP1 REVERT JUMPDEST POP JUMP JUMPDEST PUSH1 0x0 DUP2 MLOAD SWAP1 POP PUSH3 0x283 DUP2 PUSH3 0x258 JUMP JUMPDEST SWAP3 SWAP2 POP POP JUMP JUMPDEST PUSH1 0x0 DUP1 PUSH1 0x0 PUSH1 0x60 DUP5 DUP7 SUB SLT ISZERO PUSH3 0x2A5 JUMPI PUSH3 0x2A4 PUSH3 0xC5 JUMP JUMPDEST JUMPDEST PUSH1 0x0 DUP5 ADD MLOAD PUSH8 0xFFFFFFFFFFFFFFFF DUP2 GT ISZERO PUSH3 0x2C6 JUMPI PUSH3 0x2C5 PUSH3 0xCA JUMP JUMPDEST JUMPDEST PUSH3 0x2D4 DUP7 DUP3 DUP8 ADD PUSH3 0x21B JUMP JUMPDEST SWAP4 POP POP PUSH1 0x20 PUSH3 0x2E7 DUP7 DUP3 DUP8 ADD PUSH3 0x272 JUMP JUMPDEST SWAP3 POP POP PUSH1 0x40 PUSH3 0x2FA DUP7 DUP3 DUP8 ADD PUSH3 0x272 JUMP JUMPDEST SWAP2 POP POP SWAP3 POP SWAP3 POP SWAP3 JUMP JUMPDEST PUSH1 0x0 DUP2 MLOAD SWAP1 POP SWAP2 SWAP1 POP JUMP JUMPDEST PUSH32 0x4E487B7100000000000000000000000000000000000000000000000000000000 PUSH1 0x0 MSTORE PUSH1 0x22 PUSH1 0x4 MSTORE PUSH1 0x24 PUSH1 0x0 REVERT JUMPDEST PUSH1 0x0 PUSH1 0x2 DUP3 DIV SWAP1 POP PUSH1 0x1 DUP3 AND DUP1 PUSH3 0x357 JUMPI PUSH1 0x7F DUP3 AND SWAP2 POP JUMPDEST PUSH1 0x20 DUP3 LT DUP2 SUB PUSH3 0x36D JUMPI PUSH3 0x36C PUSH3 0x30F JUMP JUMPDEST JUMPDEST POP SWAP2 SWAP1 POP JUMP JUMPDEST PUSH1 0x0 DUP2 SWAP1 POP DUP2 PUSH1 0x0 MSTORE PUSH1 0x20 PUSH1 0x0 KECCAK256 SWAP1 POP SWAP2 SWAP1 POP JUMP JUMPDEST PUSH1 0x0 PUSH1 0x20 PUSH1 0x1F DUP4 ADD DIV SWAP1 POP SWAP2 SWAP1 POP JUMP JUMPDEST PUSH1 0x0 DUP3 DUP3 SHL SWAP1 POP SWAP3 SWAP2 POP POP JUMP JUMPDEST PUSH1 0x0 PUSH1 0x8 DUP4 MUL PUSH3 0x3D7 PUSH32 0xFFFFFFFFFFFFFFFFFFFFFFFFFFFFFFFFFFFFFFFFFFFFFFFFFFFFFFFFFFFFFFFF DUP3 PUSH3 0x398 JUMP JUMPDEST PUSH3 0x3E3 DUP7 DUP4 PUSH3 0x398 JUMP JUMPDEST SWAP6 POP DUP1 NOT DUP5 AND SWAP4 POP DUP1 DUP7 AND DUP5 OR SWAP3 POP POP POP SWAP4 SWAP3 POP POP POP JUMP JUMPDEST PUSH1 0x0 DUP2 SWAP1 POP SWAP2 SWAP1 POP JUMP JUMPDEST PUSH1 0x0 PUSH3 0x426 PUSH3 0x420 PUSH3 0x41A DUP5 PUSH3 0x24E JUMP JUMPDEST PUSH3 0x3FB JUMP JUMPDEST PUSH3 0x24E JUMP JUMPDEST SWAP1 POP SWAP2 SWAP1 POP JUMP JUMPDEST PUSH1 0x0 DUP2 SWAP1 POP SWAP2 SWAP1 POP JUMP JUMPDEST PUSH3 0x442 DUP4 PUSH3 0x405 JUMP JUMPDEST PUSH3 0x45A PUSH3 0x451 DUP3 PUSH3 0x42D JUMP JUMPDEST DUP5 DUP5 SLOAD PUSH3 0x3A5 JUMP JUMPDEST DUP3 SSTORE POP POP POP POP JUMP JUMPDEST PUSH1 0x0 SWAP1 JUMP JUMPDEST PUSH3 0x471 PUSH3 0x462 JUMP JUMPDEST PUSH3 0x47E DUP2 DUP5 DUP5 PUSH3 0x437 JUMP JUMPDEST POP POP POP JUMP JUMPDEST JUMPDEST DUP2 DUP2 LT ISZERO PUSH3 0x4A6 JUMPI PUSH3 0x49A PUSH1 0x0 DUP3 PUSH3 0x467 JUMP JUMPDEST PUSH1 0x1 DUP2 ADD SWAP1 POP PUSH3 0x484 JUMP JUMPDEST POP POP JUMP JUMPDEST PUSH1 0x1F DUP3 GT ISZERO PUSH3 0x4F5 JUMPI PUSH3 0x4BF DUP2 PUSH3 0x373 JUMP JUMPDEST PUSH3 0x4CA DUP5 PUSH3 0x388 JUMP JUMPDEST DUP2 ADD PUSH1 0x20 DUP6 LT ISZERO PUSH3 0x4DA JUMPI DUP2 SWAP1 POP JUMPDEST PUSH3 0x4F2 PUSH3 0x4E9 DUP6 PUSH3 0x388 JUMP JUMPDEST DUP4 ADD DUP3 PUSH3 0x483 JUMP JUMPDEST POP POP JUMPDEST POP POP POP JUMP JUMPDEST PUSH1 0x0 DUP3 DUP3 SHR SWAP1 POP SWAP3 SWAP2 POP POP JUMP JUMPDEST PUSH1 0x0 PUSH3 0x51A PUSH1 0x0 NOT DUP5 PUSH1 0x8 MUL PUSH3 0x4FA JUMP JUMPDEST NOT DUP1 DUP4 AND SWAP2 POP POP SWAP3 SWAP2 POP POP JUMP JUMPDEST PUSH1 0x0 PUSH3 0x535 DUP4 DUP4 PUSH3 0x507 JUMP JUMPDEST SWAP2 POP DUP3 PUSH1 0x2 MUL DUP3 OR SWAP1 POP SWAP3 SWAP2 POP POP JUMP JUMPDEST PUSH3 0x550 DUP3 PUSH3 0x304 JUMP JUMPDEST PUSH8 0xFFFFFFFFFFFFFFFF DUP2 GT ISZERO PUSH3 0x56C JUMPI PUSH3 0x56B PUSH3 0xEA JUMP JUMPDEST JUMPDEST PUSH3 0x578 DUP3 SLOAD PUSH3 0x33E JUMP JUMPDEST PUSH3 0x585 DUP3 DUP3 DUP6 PUSH3 0x4AA JUMP JUMPDEST PUSH1 0x0 PUSH1 0x20 SWAP1 POP PUSH1 0x1F DUP4 GT PUSH1 0x1 DUP2 EQ PUSH3 0x5BD JUMPI PUSH1 0x0 DUP5 ISZERO PUSH3 0x5A8 JUMPI DUP3 DUP8 ADD MLOAD SWAP1 POP JUMPDEST PUSH3 0x5B4 DUP6 DUP3 PUSH3 0x527 JUMP JUMPDEST DUP7 SSTORE POP PUSH3 0x624 JUMP JUMPDEST PUSH1 0x1F NOT DUP5 AND PUSH3 0x5CD DUP7 PUSH3 0x373 JUMP JUMPDEST PUSH1 0x0 JUMPDEST DUP3 DUP2 LT ISZERO PUSH3 0x5F7 JUMPI DUP5 DUP10 ADD MLOAD DUP3 SSTORE PUSH1 0x1 DUP3 ADD SWAP2 POP PUSH1 0x20 DUP6 ADD SWAP5 POP PUSH1 0x20 DUP2 ADD SWAP1 POP PUSH3 0x5D0 JUMP JUMPDEST DUP7 DUP4 LT ISZERO PUSH3 0x617 JUMPI DUP5 DUP10 ADD MLOAD PUSH3 0x613 PUSH1 0x1F DUP10 AND DUP3 PUSH3 0x507 JUMP JUMPDEST DUP4 SSTORE POP JUMPDEST PUSH1 0x1 PUSH1 0x2 DUP9 MUL ADD DUP9 SSTORE POP POP POP JUMPDEST POP POP POP POP POP POP JUMP JUMPDEST PUSH2 0x1A00 DUP1 PUSH3 0x63C PUSH1 0x0 CODECOPY PUSH1 0x0 RETURN INVALID PUSH1 0x80 PUSH1 0x40 MSTORE PUSH1 0x4 CALLDATASIZE LT PUSH2 0x109 JUMPI PUSH1 0x0 CALLDATALOAD PUSH1 0xE0 SHR DUP1 PUSH4 0x609E67B0 GT PUSH2 0x95 JUMPI DUP1 PUSH4 0xBC99CBD0 GT PUSH2 0x64 JUMPI DUP1 PUSH4 0xBC99CBD0 EQ PUSH2 0x35F JUMPI DUP1 PUSH4 0xC8DEC815 EQ PUSH2 0x38A JUMPI DUP1 PUSH4 0xD90E5024 EQ PUSH2 0x3A6 JUMPI DUP1 PUSH4 0xEC1A9BD8 EQ PUSH2 0x3D1 JUMPI DUP1 PUSH4 0xFFE41B27 EQ PUSH2 0x401 JUMPI PUSH2 0x109 JUMP JUMPDEST DUP1 PUSH4 0x609E67B0 EQ PUSH2 0x2A1 JUMPI DUP1 PUSH4 0x7284E416 EQ PUSH2 0x2DE JUMPI DUP1 PUSH4 0x7C1C3439 EQ PUSH2 0x309 JUMPI DUP1 PUSH4 0x8DA5CB5B EQ PUSH2 0x334 JUMPI PUSH2 0x109 JUMP JUMPDEST DUP1 PUSH4 0x17634514 GT PUSH2 0xDC JUMPI DUP1 PUSH4 0x17634514 EQ PUSH2 0x1CC JUMPI DUP1 PUSH4 0x1AEE3531 EQ PUSH2 0x1F7 JUMPI DUP1 PUSH4 0x1D4632AC EQ PUSH2 0x220 JUMPI DUP1 PUSH4 0x3AF874D7 EQ PUSH2 0x24B JUMPI DUP1 PUSH4 0x413350BD EQ PUSH2 0x276 JUMPI PUSH2 0x109 JUMP JUMPDEST DUP1 PUSH4 0x1BC246A EQ PUSH2 0x10E JUMPI DUP1 PUSH4 0x3CD7834 EQ PUSH2 0x139 JUMPI DUP1 PUSH4 0xAF2F424 EQ PUSH2 0x164 JUMPI DUP1 PUSH4 0x11075499 EQ PUSH2 0x18F JUMPI JUMPDEST PUSH1 0x0 DUP1 REVERT JUMPDEST CALLVALUE DUP1 ISZERO PUSH2 0x11A JUMPI PUSH1 0x0 DUP1 REVERT JUMPDEST POP PUSH2 0x123 PUSH2 0x43E JUMP JUMPDEST PUSH1 0x40 MLOAD PUSH2 0x130 SWAP2 SWAP1 PUSH2 0xD02 JUMP JUMPDEST PUSH1 0x40 MLOAD DUP1 SWAP2 SUB SWAP1 RETURN JUMPDEST CALLVALUE DUP1 ISZERO PUSH2 0x145 JUMPI PUSH1 0x0 DUP1 REVERT JUMPDEST POP PUSH2 0x14E PUSH2 0x444 JUMP JUMPDEST PUSH1 0x40 MLOAD PUSH2 0x15B SWAP2 SWAP1 PUSH2 0xD02 JUMP JUMPDEST PUSH1 0x40 MLOAD DUP1 SWAP2 SUB SWAP1 RETURN JUMPDEST CALLVALUE DUP1 ISZERO PUSH2 0x170 JUMPI PUSH1 0x0 DUP1 REVERT JUMPDEST POP PUSH2 0x179 PUSH2 0x44A JUMP JUMPDEST PUSH1 0x40 MLOAD PUSH2 0x186 SWAP2 SWAP1 PUSH2 0xD02 JUMP JUMPDEST PUSH1 0x40 MLOAD DUP1 SWAP2 SUB SWAP1 RETURN JUMPDEST CALLVALUE DUP1 ISZERO PUSH2 0x19B JUMPI PUSH1 0x0 DUP1 REVERT JUMPDEST POP PUSH2 0x1B6 PUSH1 0x4 DUP1 CALLDATASIZE SUB DUP2 ADD SWAP1 PUSH2 0x1B1 SWAP2 SWAP1 PUSH2 0xE77 JUMP JUMPDEST PUSH2 0x450 JUMP JUMPDEST PUSH1 0x40 MLOAD PUSH2 0x1C3 SWAP2 SWAP1 PUSH2 0xD02 JUMP JUMPDEST PUSH1 0x40 MLOAD DUP1 SWAP2 SUB SWAP1 RETURN JUMPDEST CALLVALUE DUP1 ISZERO PUSH2 0x1D8 JUMPI PUSH1 0x0 DUP1 REVERT JUMPDEST POP PUSH2 0x1E1 PUSH2 0x504 JUMP JUMPDEST PUSH1 0x40 MLOAD PUSH2 0x1EE SWAP2 SWAP1 PUSH2 0xD02 JUMP JUMPDEST PUSH1 0x40 MLOAD DUP1 SWAP2 SUB SWAP1 RETURN JUMPDEST CALLVALUE DUP1 ISZERO PUSH2 0x203 JUMPI PUSH1 0x0 DUP1 REVERT JUMPDEST POP PUSH2 0x21E PUSH1 0x4 DUP1 CALLDATASIZE SUB DUP2 ADD SWAP1 PUSH2 0x219 SWAP2 SWAP1 PUSH2 0xF1E JUMP JUMPDEST PUSH2 0x50A JUMP JUMPDEST STOP JUMPDEST CALLVALUE DUP1 ISZERO PUSH2 0x22C JUMPI PUSH1 0x0 DUP1 REVERT JUMPDEST POP PUSH2 0x235 PUSH2 0x5DE JUMP JUMPDEST PUSH1 0x40 MLOAD PUSH2 0x242 SWAP2 SWAP1 PUSH2 0xD02 JUMP JUMPDEST PUSH1 0x40 MLOAD DUP1 SWAP2 SUB SWAP1 RETURN JUMPDEST CALLVALUE DUP1 ISZERO PUSH2 0x257 JUMPI PUSH1 0x0 DUP1 REVERT JUMPDEST POP PUSH2 0x260 PUSH2 0x5E4 JUMP JUMPDEST PUSH1 0x40 MLOAD PUSH2 0x26D SWAP2 SWAP1 PUSH2 0xD02 JUMP JUMPDEST PUSH1 0x40 MLOAD DUP1 SWAP2 SUB SWAP1 RETURN JUMPDEST CALLVALUE DUP1 ISZERO PUSH2 0x282 JUMPI PUSH1 0x0 DUP1 REVERT JUMPDEST POP PUSH2 0x28B PUSH2 0x5EA JUMP JUMPDEST PUSH1 0x40 MLOAD PUSH2 0x298 SWAP2 SWAP1 PUSH2 0xD02 JUMP JUMPDEST PUSH1 0x40 MLOAD DUP1 SWAP2 SUB SWAP1 RETURN JUMPDEST CALLVALUE DUP1 ISZERO PUSH2 0x2AD JUMPI PUSH1 0x0 DUP1 REVERT JUMPDEST POP PUSH2 0x2C8 PUSH1 0x4 DUP1 CALLDATASIZE SUB DUP2 ADD SWAP1 PUSH2 0x2C3 SWAP2 SWAP1 PUSH2 0xF77 JUMP JUMPDEST PUSH2 0x5F0 JUMP JUMPDEST PUSH1 0x40 MLOAD PUSH2 0x2D5 SWAP2 SWAP1 PUSH2 0x1023 JUMP JUMPDEST PUSH1 0x40 MLOAD DUP1 SWAP2 SUB SWAP1 RETURN JUMPDEST CALLVALUE DUP1 ISZERO PUSH2 0x2EA JUMPI PUSH1 0x0 DUP1 REVERT JUMPDEST POP PUSH2 0x2F3 PUSH2 0x69C JUMP JUMPDEST PUSH1 0x40 MLOAD PUSH2 0x300 SWAP2 SWAP1 PUSH2 0x1023 JUMP JUMPDEST PUSH1 0x40 MLOAD DUP1 SWAP2 SUB SWAP1 RETURN JUMPDEST CALLVALUE DUP1 ISZERO PUSH2 0x315 JUMPI PUSH1 0x0 DUP1 REVERT JUMPDEST POP PUSH2 0x31E PUSH2 0x72A JUMP JUMPDEST PUSH1 0x40 MLOAD PUSH2 0x32B SWAP2 SWAP1 PUSH2 0x1066 JUMP JUMPDEST PUSH1 0x40 MLOAD DUP1 SWAP2 SUB SWAP1 RETURN JUMPDEST CALLVALUE DUP1 ISZERO PUSH2 0x340 JUMPI PUSH1 0x0 DUP1 REVERT JUMPDEST POP PUSH2 0x349 PUSH2 0x750 JUMP JUMPDEST PUSH1 0x40 MLOAD PUSH2 0x356 SWAP2 SWAP1 PUSH2 0x1090 JUMP JUMPDEST PUSH1 0x40 MLOAD DUP1 SWAP2 SUB SWAP1 RETURN JUMPDEST CALLVALUE DUP1 ISZERO PUSH2 0x36B JUMPI PUSH1 0x0 DUP1 REVERT JUMPDEST POP PUSH2 0x374 PUSH2 0x774 JUMP JUMPDEST PUSH1 0x40 MLOAD PUSH2 0x381 SWAP2 SWAP1 PUSH2 0x10C6 JUMP JUMPDEST PUSH1 0x40 MLOAD DUP1 SWAP2 SUB SWAP1 RETURN JUMPDEST PUSH2 0x3A4 PUSH1 0x4 DUP1 CALLDATASIZE SUB DUP2 ADD SWAP1 PUSH2 0x39F SWAP2 SWAP1 PUSH2 0x10E1 JUMP JUMPDEST PUSH2 0x787 JUMP JUMPDEST STOP JUMPDEST CALLVALUE DUP1 ISZERO PUSH2 0x3B2 JUMPI PUSH1 0x0 DUP1 REVERT JUMPDEST POP PUSH2 0x3BB PUSH2 0x9C4 JUMP JUMPDEST PUSH1 0x40 MLOAD PUSH2 0x3C8 SWAP2 SWAP1 PUSH2 0x1090 JUMP JUMPDEST PUSH1 0x40 MLOAD DUP1 SWAP2 SUB SWAP1 RETURN JUMPDEST PUSH2 0x3EB PUSH1 0x4 DUP1 CALLDATASIZE SUB DUP2 ADD SWAP1 PUSH2 0x3E6 SWAP2 SWAP1 PUSH2 0xE77 JUMP JUMPDEST PUSH2 0x9EA JUMP JUMPDEST PUSH1 0x40 MLOAD PUSH2 0x3F8 SWAP2 SWAP1 PUSH2 0x1023 JUMP JUMPDEST PUSH1 0x40 MLOAD DUP1 SWAP2 SUB SWAP1 RETURN JUMPDEST CALLVALUE DUP1 ISZERO PUSH2 0x40D JUMPI PUSH1 0x0 DUP1 REVERT JUMPDEST POP PUSH2 0x428 PUSH1 0x4 DUP1 CALLDATASIZE SUB DUP2 ADD SWAP1 PUSH2 0x423 SWAP2 SWAP1 PUSH2 0xF1E JUMP JUMPDEST PUSH2 0xAFA JUMP JUMPDEST PUSH1 0x40 MLOAD PUSH2 0x435 SWAP2 SWAP1 PUSH2 0xD02 JUMP JUMPDEST PUSH1 0x40 MLOAD DUP1 SWAP2 SUB SWAP1 RETURN JUMPDEST PUSH1 0x8 SLOAD DUP2 JUMP JUMPDEST PUSH1 0xB SLOAD DUP2 JUMP JUMPDEST PUSH1 0x2 SLOAD DUP2 JUMP JUMPDEST PUSH1 0x0 DUP1 PUSH1 0x0 SWAP1 POP PUSH1 0x0 DUP4 SWAP1 POP PUSH1 0x0 JUMPDEST DUP2 MLOAD DUP2 LT ISZERO PUSH2 0x4F9 JUMPI PUSH1 0x0 DUP2 DUP4 MLOAD PUSH2 0x477 SWAP2 SWAP1 PUSH2 0x1150 JUMP JUMPDEST SWAP1 POP PUSH1 0x0 DUP4 DUP4 DUP2 MLOAD DUP2 LT PUSH2 0x48E JUMPI PUSH2 0x48D PUSH2 0x1184 JUMP JUMPDEST JUMPDEST PUSH1 0x20 ADD ADD MLOAD PUSH1 0xF8 SHR PUSH1 0xF8 SHL SWAP1 POP PUSH1 0x0 DUP2 PUSH1 0xF8 SHR SWAP1 POP PUSH1 0x0 PUSH1 0x30 DUP3 PUSH1 0xFF AND PUSH2 0x4B5 SWAP2 SWAP1 PUSH2 0x1150 JUMP JUMPDEST SWAP1 POP PUSH1 0x1 DUP5 PUSH2 0x4C4 SWAP2 SWAP1 PUSH2 0x1150 JUMP JUMPDEST PUSH1 0xA PUSH2 0x4D0 SWAP2 SWAP1 PUSH2 0x12E6 JUMP JUMPDEST DUP2 PUSH2 0x4DB SWAP2 SWAP1 PUSH2 0x1331 JUMP JUMPDEST DUP8 PUSH2 0x4E6 SWAP2 SWAP1 PUSH2 0x1373 JUMP JUMPDEST SWAP7 POP POP POP POP POP DUP1 DUP1 PUSH1 0x1 ADD SWAP2 POP POP PUSH2 0x45F JUMP JUMPDEST POP DUP2 SWAP3 POP POP POP SWAP2 SWAP1 POP JUMP JUMPDEST PUSH1 0xC SLOAD DUP2 JUMP JUMPDEST PUSH1 0x3 PUSH1 0x0 SWAP1 SLOAD SWAP1 PUSH2 0x100 EXP SWAP1 DIV PUSH20 0xFFFFFFFFFFFFFFFFFFFFFFFFFFFFFFFFFFFFFFFF AND PUSH20 0xFFFFFFFFFFFFFFFFFFFFFFFFFFFFFFFFFFFFFFFF AND CALLER PUSH20 0xFFFFFFFFFFFFFFFFFFFFFFFFFFFFFFFFFFFFFFFF AND EQ PUSH2 0x59A JUMPI PUSH1 0x40 MLOAD PUSH32 0x8C379A000000000000000000000000000000000000000000000000000000000 DUP2 MSTORE PUSH1 0x4 ADD PUSH2 0x591 SWAP1 PUSH2 0x1419 JUMP JUMPDEST PUSH1 0x40 MLOAD DUP1 SWAP2 SUB SWAP1 REVERT JUMPDEST DUP1 PUSH1 0xD PUSH1 0x0 PUSH2 0x100 EXP DUP2 SLOAD DUP2 PUSH20 0xFFFFFFFFFFFFFFFFFFFFFFFFFFFFFFFFFFFFFFFF MUL NOT AND SWAP1 DUP4 PUSH20 0xFFFFFFFFFFFFFFFFFFFFFFFFFFFFFFFFFFFFFFFF AND MUL OR SWAP1 SSTORE POP POP JUMP JUMPDEST PUSH1 0x6 SLOAD DUP2 JUMP JUMPDEST PUSH1 0x7 SLOAD DUP2 JUMP JUMPDEST PUSH1 0x4 SLOAD DUP2 JUMP JUMPDEST PUSH1 0xA DUP2 DUP2 SLOAD DUP2 LT PUSH2 0x600 JUMPI PUSH1 0x0 DUP1 REVERT JUMPDEST SWAP1 PUSH1 0x0 MSTORE PUSH1 0x20 PUSH1 0x0 KECCAK256 ADD PUSH1 0x0 SWAP2 POP SWAP1 POP DUP1 SLOAD PUSH2 0x61B SWAP1 PUSH2 0x1468 JUMP JUMPDEST DUP1 PUSH1 0x1F ADD PUSH1 0x20 DUP1 SWAP2 DIV MUL PUSH1 0x20 ADD PUSH1 0x40 MLOAD SWAP1 DUP2 ADD PUSH1 0x40 MSTORE DUP1 SWAP3 SWAP2 SWAP1 DUP2 DUP2 MSTORE PUSH1 0x20 ADD DUP3 DUP1 SLOAD PUSH2 0x647 SWAP1 PUSH2 0x1468 JUMP JUMPDEST DUP1 ISZERO PUSH2 0x694 JUMPI DUP1 PUSH1 0x1F LT PUSH2 0x669 JUMPI PUSH2 0x100 DUP1 DUP4 SLOAD DIV MUL DUP4 MSTORE SWAP2 PUSH1 0x20 ADD SWAP2 PUSH2 0x694 JUMP JUMPDEST DUP3 ADD SWAP2 SWAP1 PUSH1 0x0 MSTORE PUSH1 0x20 PUSH1 0x0 KECCAK256 SWAP1 JUMPDEST DUP2 SLOAD DUP2 MSTORE SWAP1 PUSH1 0x1 ADD SWAP1 PUSH1 0x20 ADD DUP1 DUP4 GT PUSH2 0x677 JUMPI DUP3 SWAP1 SUB PUSH1 0x1F AND DUP3 ADD SWAP2 JUMPDEST POP POP POP POP POP DUP2 JUMP JUMPDEST PUSH1 0x5 DUP1 SLOAD PUSH2 0x6A9 SWAP1 PUSH2 0x1468 JUMP JUMPDEST DUP1 PUSH1 0x1F ADD PUSH1 0x20 DUP1 SWAP2 DIV MUL PUSH1 0x20 ADD PUSH1 0x40 MLOAD SWAP1 DUP2 ADD PUSH1 0x40 MSTORE DUP1 SWAP3 SWAP2 SWAP1 DUP2 DUP2 MSTORE PUSH1 0x20 ADD DUP3 DUP1 SLOAD PUSH2 0x6D5 SWAP1 PUSH2 0x1468 JUMP JUMPDEST DUP1 ISZERO PUSH2 0x722 JUMPI DUP1 PUSH1 0x1F LT PUSH2 0x6F7 JUMPI PUSH2 0x100 DUP1 DUP4 SLOAD DIV MUL DUP4 MSTORE SWAP2 PUSH1 0x20 ADD SWAP2 PUSH2 0x722 JUMP JUMPDEST DUP3 ADD SWAP2 SWAP1 PUSH1 0x0 MSTORE PUSH1 0x20 PUSH1 0x0 KECCAK256 SWAP1 JUMPDEST DUP2 SLOAD DUP2 MSTORE SWAP1 PUSH1 0x1 ADD SWAP1 PUSH1 0x20 ADD DUP1 DUP4 GT PUSH2 0x705 JUMPI DUP3 SWAP1 SUB PUSH1 0x1F AND DUP3 ADD SWAP2 JUMPDEST POP POP POP POP POP DUP2 JUMP JUMPDEST PUSH1 0x3 PUSH1 0x0 SWAP1 SLOAD SWAP1 PUSH2 0x100 EXP SWAP1 DIV PUSH20 0xFFFFFFFFFFFFFFFFFFFFFFFFFFFFFFFFFFFFFFFF AND DUP2 JUMP JUMPDEST PUSH1 0x0 DUP1 SLOAD SWAP1 PUSH2 0x100 EXP SWAP1 DIV PUSH20 0xFFFFFFFFFFFFFFFFFFFFFFFFFFFFFFFFFFFFFFFF AND DUP2 JUMP JUMPDEST PUSH1 0x9 PUSH1 0x0 SWAP1 SLOAD SWAP1 PUSH2 0x100 EXP SWAP1 DIV PUSH1 0xFF AND DUP2 JUMP JUMPDEST PUSH1 0x0 PUSH2 0x792 DUP4 PUSH2 0xAFA JUMP JUMPDEST SWAP1 POP PUSH1 0x0 PUSH20 0xFFFFFFFFFFFFFFFFFFFFFFFFFFFFFFFFFFFFFFFF AND PUSH1 0x1 PUSH1 0x0 SWAP1 SLOAD SWAP1 PUSH2 0x100 EXP SWAP1 DIV PUSH20 0xFFFFFFFFFFFFFFFFFFFFFFFFFFFFFFFFFFFFFFFF AND PUSH20 0xFFFFFFFFFFFFFFFFFFFFFFFFFFFFFFFFFFFFFFFF AND SUB PUSH2 0x87F JUMPI DUP3 PUSH1 0x1 PUSH1 0x0 PUSH2 0x100 EXP DUP2 SLOAD DUP2 PUSH20 0xFFFFFFFFFFFFFFFFFFFFFFFFFFFFFFFFFFFFFFFF MUL NOT AND SWAP1 DUP4 PUSH20 0xFFFFFFFFFFFFFFFFFFFFFFFFFFFFFFFFFFFFFFFF AND MUL OR SWAP1 SSTORE POP DUP1 PUSH1 0x2 DUP2 SWAP1 SSTORE POP DUP2 PUSH1 0x3 PUSH1 0x0 PUSH2 0x100 EXP DUP2 SLOAD DUP2 PUSH20 0xFFFFFFFFFFFFFFFFFFFFFFFFFFFFFFFFFFFFFFFF MUL NOT AND SWAP1 DUP4 PUSH20 0xFFFFFFFFFFFFFFFFFFFFFFFFFFFFFFFFFFFFFFFF AND MUL OR SWAP1 SSTORE POP NUMBER PUSH1 0x4 DUP2 SWAP1 SSTORE POP PUSH2 0x9BF JUMP JUMPDEST PUSH1 0x2 SLOAD DUP2 GT ISZERO PUSH2 0x9BE JUMPI PUSH1 0x9 PUSH1 0x0 SWAP1 SLOAD SWAP1 PUSH2 0x100 EXP SWAP1 DIV PUSH1 0xFF AND PUSH2 0x92D JUMPI PUSH1 0x0 PUSH2 0x8A7 PUSH2 0xC77 JUMP JUMPDEST SWAP1 POP DUP1 PUSH1 0x7 PUSH1 0x0 DUP3 DUP3 SLOAD PUSH2 0x8BB SWAP2 SWAP1 PUSH2 0x1150 JUMP JUMPDEST SWAP3 POP POP DUP2 SWAP1 SSTORE POP PUSH1 0x3 PUSH1 0x0 SWAP1 SLOAD SWAP1 PUSH2 0x100 EXP SWAP1 DIV PUSH20 0xFFFFFFFFFFFFFFFFFFFFFFFFFFFFFFFFFFFFFFFF AND PUSH20 0xFFFFFFFFFFFFFFFFFFFFFFFFFFFFFFFFFFFFFFFF AND PUSH2 0x8FC DUP3 SWAP1 DUP2 ISZERO MUL SWAP1 PUSH1 0x40 MLOAD PUSH1 0x0 PUSH1 0x40 MLOAD DUP1 DUP4 SUB DUP2 DUP6 DUP9 DUP9 CALL SWAP4 POP POP POP POP ISZERO DUP1 ISZERO PUSH2 0x92A JUMPI RETURNDATASIZE PUSH1 0x0 DUP1 RETURNDATACOPY RETURNDATASIZE PUSH1 0x0 REVERT JUMPDEST POP POP JUMPDEST DUP3 PUSH1 0x1 PUSH1 0x0 PUSH2 0x100 EXP DUP2 SLOAD DUP2 PUSH20 0xFFFFFFFFFFFFFFFFFFFFFFFFFFFFFFFFFFFFFFFF MUL NOT AND SWAP1 DUP4 PUSH20 0xFFFFFFFFFFFFFFFFFFFFFFFFFFFFFFFFFFFFFFFF AND MUL OR SWAP1 SSTORE POP DUP1 PUSH1 0x2 DUP2 SWAP1 SSTORE POP DUP2 PUSH1 0x3 PUSH1 0x0 PUSH2 0x100 EXP DUP2 SLOAD DUP2 PUSH20 0xFFFFFFFFFFFFFFFFFFFFFFFFFFFFFFFFFFFFFFFF MUL NOT AND SWAP1 DUP4 PUSH20 0xFFFFFFFFFFFFFFFFFFFFFFFFFFFFFFFFFFFFFFFF AND MUL OR SWAP1 SSTORE POP NUMBER PUSH1 0x4 DUP2 SWAP1 SSTORE POP JUMPDEST JUMPDEST POP POP POP JUMP JUMPDEST PUSH1 0x1 PUSH1 0x0 SWAP1 SLOAD SWAP1 PUSH2 0x100 EXP SWAP1 DIV PUSH20 0xFFFFFFFFFFFFFFFFFFFFFFFFFFFFFFFFFFFFFFFF AND DUP2 JUMP JUMPDEST PUSH1 0x60 PUSH1 0xB SLOAD CALLVALUE EQ PUSH2 0xA30 JUMPI PUSH1 0x40 MLOAD PUSH32 0x8C379A000000000000000000000000000000000000000000000000000000000 DUP2 MSTORE PUSH1 0x4 ADD PUSH2 0xA27 SWAP1 PUSH2 0x14E5 JUMP JUMPDEST PUSH1 0x40 MLOAD DUP1 SWAP2 SUB SWAP1 REVERT JUMPDEST PUSH1 0x1 PUSH1 0x0 SWAP1 SLOAD SWAP1 PUSH2 0x100 EXP SWAP1 DIV PUSH20 0xFFFFFFFFFFFFFFFFFFFFFFFFFFFFFFFFFFFFFFFF AND PUSH20 0xFFFFFFFFFFFFFFFFFFFFFFFFFFFFFFFFFFFFFFFF AND PUSH4 0x469C8110 PUSH1 0x5 DUP5 PUSH1 0x40 MLOAD PUSH1 0x20 ADD PUSH2 0xA82 SWAP3 SWAP2 SWAP1 PUSH2 0x1697 JUMP JUMPDEST PUSH1 0x40 MLOAD PUSH1 0x20 DUP2 DUP4 SUB SUB DUP2 MSTORE SWAP1 PUSH1 0x40 MSTORE PUSH1 0x40 MLOAD DUP3 PUSH4 0xFFFFFFFF AND PUSH1 0xE0 SHL DUP2 MSTORE PUSH1 0x4 ADD PUSH2 0xAAD SWAP2 SWAP1 PUSH2 0x1023 JUMP JUMPDEST PUSH1 0x0 PUSH1 0x40 MLOAD DUP1 DUP4 SUB DUP2 DUP7 GAS STATICCALL ISZERO DUP1 ISZERO PUSH2 0xACA JUMPI RETURNDATASIZE PUSH1 0x0 DUP1 RETURNDATACOPY RETURNDATASIZE PUSH1 0x0 REVERT JUMPDEST POP POP POP POP PUSH1 0x40 MLOAD RETURNDATASIZE PUSH1 0x0 DUP3 RETURNDATACOPY RETURNDATASIZE PUSH1 0x1F NOT PUSH1 0x1F DUP3 ADD AND DUP3 ADD DUP1 PUSH1 0x40 MSTORE POP DUP2 ADD SWAP1 PUSH2 0xAF3 SWAP2 SWAP1 PUSH2 0x1745 JUMP JUMPDEST SWAP1 POP SWAP2 SWAP1 POP JUMP JUMPDEST PUSH1 0x0 DUP1 DUP3 PUSH20 0xFFFFFFFFFFFFFFFFFFFFFFFFFFFFFFFFFFFFFFFF AND PUSH4 0x469C8110 PUSH1 0x5 PUSH1 0x40 MLOAD PUSH1 0x20 ADD PUSH2 0xB2B SWAP2 SWAP1 PUSH2 0x17B4 JUMP JUMPDEST PUSH1 0x40 MLOAD PUSH1 0x20 DUP2 DUP4 SUB SUB DUP2 MSTORE SWAP1 PUSH1 0x40 MSTORE PUSH1 0x40 MLOAD DUP3 PUSH4 0xFFFFFFFF AND PUSH1 0xE0 SHL DUP2 MSTORE PUSH1 0x4 ADD PUSH2 0xB56 SWAP2 SWAP1 PUSH2 0x1023 JUMP JUMPDEST PUSH1 0x0 PUSH1 0x40 MLOAD DUP1 DUP4 SUB DUP2 DUP7 GAS STATICCALL ISZERO DUP1 ISZERO PUSH2 0xB73 JUMPI RETURNDATASIZE PUSH1 0x0 DUP1 RETURNDATACOPY RETURNDATASIZE PUSH1 0x0 REVERT JUMPDEST POP POP POP POP PUSH1 0x40 MLOAD RETURNDATASIZE PUSH1 0x0 DUP3 RETURNDATACOPY RETURNDATASIZE PUSH1 0x1F NOT PUSH1 0x1F DUP3 ADD AND DUP3 ADD DUP1 PUSH1 0x40 MSTORE POP DUP2 ADD SWAP1 PUSH2 0xB9C SWAP2 SWAP1 PUSH2 0x1745 JUMP JUMPDEST SWAP1 POP PUSH1 0x0 PUSH1 0xD PUSH1 0x0 SWAP1 SLOAD SWAP1 PUSH2 0x100 EXP SWAP1 DIV PUSH20 0xFFFFFFFFFFFFFFFFFFFFFFFFFFFFFFFFFFFFFFFF AND PUSH20 0xFFFFFFFFFFFFFFFFFFFFFFFFFFFFFFFFFFFFFFFF AND PUSH4 0x469C8110 PUSH1 0x5 DUP5 PUSH1 0x40 MLOAD PUSH1 0x20 ADD PUSH2 0xBF2 SWAP3 SWAP2 SWAP1 PUSH2 0x1930 JUMP JUMPDEST PUSH1 0x40 MLOAD PUSH1 0x20 DUP2 DUP4 SUB SUB DUP2 MSTORE SWAP1 PUSH1 0x40 MSTORE PUSH1 0x40 MLOAD DUP3 PUSH4 0xFFFFFFFF AND PUSH1 0xE0 SHL DUP2 MSTORE PUSH1 0x4 ADD PUSH2 0xC1D SWAP2 SWAP1 PUSH2 0x1023 JUMP JUMPDEST PUSH1 0x0 PUSH1 0x40 MLOAD DUP1 DUP4 SUB DUP2 DUP7 GAS STATICCALL ISZERO DUP1 ISZERO PUSH2 0xC3A JUMPI RETURNDATASIZE PUSH1 0x0 DUP1 RETURNDATACOPY RETURNDATASIZE PUSH1 0x0 REVERT JUMPDEST POP POP POP POP PUSH1 0x40 MLOAD RETURNDATASIZE PUSH1 0x0 DUP3 RETURNDATACOPY RETURNDATASIZE PUSH1 0x1F NOT PUSH1 0x1F DUP3 ADD AND DUP3 ADD DUP1 PUSH1 0x40 MSTORE POP DUP2 ADD SWAP1 PUSH2 0xC63 SWAP2 SWAP1 PUSH2 0x1745 JUMP JUMPDEST SWAP1 POP PUSH2 0xC6E DUP2 PUSH2 0x450 JUMP JUMPDEST SWAP3 POP POP POP SWAP2 SWAP1 POP JUMP JUMPDEST PUSH1 0x0 PUSH1 0x8 SLOAD PUSH1 0xC SLOAD NUMBER PUSH2 0xC8A SWAP2 SWAP1 PUSH2 0x1150 JUMP JUMPDEST GT ISZERO PUSH2 0xCB5 JUMPI PUSH1 0x1 PUSH1 0x9 PUSH1 0x0 PUSH2 0x100 EXP DUP2 SLOAD DUP2 PUSH1 0xFF MUL NOT AND SWAP1 DUP4 ISZERO ISZERO MUL OR SWAP1 SSTORE POP PUSH1 0x7 SLOAD SWAP1 POP PUSH2 0xCE6 JUMP JUMPDEST PUSH1 0x0 PUSH1 0x4 SLOAD NUMBER PUSH2 0xCC5 SWAP2 SWAP1 PUSH2 0x1150 JUMP JUMPDEST SWAP1 POP PUSH1 0x8 SLOAD DUP2 PUSH2 0xCD5 SWAP2 SWAP1 PUSH2 0x1999 JUMP JUMPDEST PUSH1 0x6 SLOAD PUSH2 0xCE2 SWAP2 SWAP1 PUSH2 0x1331 JUMP JUMPDEST SWAP2 POP POP JUMPDEST SWAP1 JUMP JUMPDEST PUSH1 0x0 DUP2 SWAP1 POP SWAP2 SWAP1 POP JUMP JUMPDEST PUSH2 0xCFC DUP2 PUSH2 0xCE9 JUMP JUMPDEST DUP3 MSTORE POP POP JUMP JUMPDEST PUSH1 0x0 PUSH1 0x20 DUP3 ADD SWAP1 POP PUSH2 0xD17 PUSH1 0x0 DUP4 ADD DUP5 PUSH2 0xCF3 JUMP JUMPDEST SWAP3 SWAP2 POP POP JUMP JUMPDEST PUSH1 0x0 PUSH1 0x40 MLOAD SWAP1 POP SWAP1 JUMP JUMPDEST PUSH1 0x0 DUP1 REVERT JUMPDEST PUSH1 0x0 DUP1 REVERT JUMPDEST PUSH1 0x0 DUP1 REVERT JUMPDEST PUSH1 0x0 DUP1 REVERT JUMPDEST PUSH1 0x0 PUSH1 0x1F NOT PUSH1 0x1F DUP4 ADD AND SWAP1 POP SWAP2 SWAP1 POP JUMP JUMPDEST PUSH32 0x4E487B7100000000000000000000000000000000000000000000000000000000 PUSH1 0x0 MSTORE PUSH1 0x41 PUSH1 0x4 MSTORE PUSH1 0x24 PUSH1 0x0 REVERT JUMPDEST PUSH2 0xD84 DUP3 PUSH2 0xD3B JUMP JUMPDEST DUP2 ADD DUP2 DUP2 LT PUSH8 0xFFFFFFFFFFFFFFFF DUP3 GT OR ISZERO PUSH2 0xDA3 JUMPI PUSH2 0xDA2 PUSH2 0xD4C JUMP JUMPDEST JUMPDEST DUP1 PUSH1 0x40 MSTORE POP POP POP JUMP JUMPDEST PUSH1 0x0 PUSH2 0xDB6 PUSH2 0xD1D JUMP JUMPDEST SWAP1 POP PUSH2 0xDC2 DUP3 DUP3 PUSH2 0xD7B JUMP JUMPDEST SWAP2 SWAP1 POP JUMP JUMPDEST PUSH1 0x0 PUSH8 0xFFFFFFFFFFFFFFFF DUP3 GT ISZERO PUSH2 0xDE2 JUMPI PUSH2 0xDE1 PUSH2 0xD4C JUMP JUMPDEST JUMPDEST PUSH2 0xDEB DUP3 PUSH2 0xD3B JUMP JUMPDEST SWAP1 POP PUSH1 0x20 DUP2 ADD SWAP1 POP SWAP2 SWAP1 POP JUMP JUMPDEST DUP3 DUP2 DUP4 CALLDATACOPY PUSH1 0x0 DUP4 DUP4 ADD MSTORE POP POP POP JUMP JUMPDEST PUSH1 0x0 PUSH2 0xE1A PUSH2 0xE15 DUP5 PUSH2 0xDC7 JUMP JUMPDEST PUSH2 0xDAC JUMP JUMPDEST SWAP1 POP DUP3 DUP2 MSTORE PUSH1 0x20 DUP2 ADD DUP5 DUP5 DUP5 ADD GT ISZERO PUSH2 0xE36 JUMPI PUSH2 0xE35 PUSH2 0xD36 JUMP JUMPDEST JUMPDEST PUSH2 0xE41 DUP5 DUP3 DUP6 PUSH2 0xDF8 JUMP JUMPDEST POP SWAP4 SWAP3 POP POP POP JUMP JUMPDEST PUSH1 0x0 DUP3 PUSH1 0x1F DUP4 ADD SLT PUSH2 0xE5E JUMPI PUSH2 0xE5D PUSH2 0xD31 JUMP JUMPDEST JUMPDEST DUP2 CALLDATALOAD PUSH2 0xE6E DUP5 DUP3 PUSH1 0x20 DUP7 ADD PUSH2 0xE07 JUMP JUMPDEST SWAP2 POP POP SWAP3 SWAP2 POP POP JUMP JUMPDEST PUSH1 0x0 PUSH1 0x20 DUP3 DUP5 SUB SLT ISZERO PUSH2 0xE8D JUMPI PUSH2 0xE8C PUSH2 0xD27 JUMP JUMPDEST JUMPDEST PUSH1 0x0 DUP3 ADD CALLDATALOAD PUSH8 0xFFFFFFFFFFFFFFFF DUP2 GT ISZERO PUSH2 0xEAB JUMPI PUSH2 0xEAA PUSH2 0xD2C JUMP JUMPDEST JUMPDEST PUSH2 0xEB7 DUP5 DUP3 DUP6 ADD PUSH2 0xE49 JUMP JUMPDEST SWAP2 POP POP SWAP3 SWAP2 POP POP JUMP JUMPDEST PUSH1 0x0 PUSH20 0xFFFFFFFFFFFFFFFFFFFFFFFFFFFFFFFFFFFFFFFF DUP3 AND SWAP1 POP SWAP2 SWAP1 POP JUMP JUMPDEST PUSH1 0x0 PUSH2 0xEEB DUP3 PUSH2 0xEC0 JUMP JUMPDEST SWAP1 POP SWAP2 SWAP1 POP JUMP JUMPDEST PUSH2 0xEFB DUP2 PUSH2 0xEE0 JUMP JUMPDEST DUP2 EQ PUSH2 0xF06 JUMPI PUSH1 0x0 DUP1 REVERT JUMPDEST POP JUMP JUMPDEST PUSH1 0x0 DUP2 CALLDATALOAD SWAP1 POP PUSH2 0xF18 DUP2 PUSH2 0xEF2 JUMP JUMPDEST SWAP3 SWAP2 POP POP JUMP JUMPDEST PUSH1 0x0 PUSH1 0x20 DUP3 DUP5 SUB SLT ISZERO PUSH2 0xF34 JUMPI PUSH2 0xF33 PUSH2 0xD27 JUMP JUMPDEST JUMPDEST PUSH1 0x0 PUSH2 0xF42 DUP5 DUP3 DUP6 ADD PUSH2 0xF09 JUMP JUMPDEST SWAP2 POP POP SWAP3 SWAP2 POP POP JUMP JUMPDEST PUSH2 0xF54 DUP2 PUSH2 0xCE9 JUMP JUMPDEST DUP2 EQ PUSH2 0xF5F JUMPI PUSH1 0x0 DUP1 REVERT JUMPDEST POP JUMP JUMPDEST PUSH1 0x0 DUP2 CALLDATALOAD SWAP1 POP PUSH2 0xF71 DUP2 PUSH2 0xF4B JUMP JUMPDEST SWAP3 SWAP2 POP POP JUMP JUMPDEST PUSH1 0x0 PUSH1 0x20 DUP3 DUP5 SUB SLT ISZERO PUSH2 0xF8D JUMPI PUSH2 0xF8C PUSH2 0xD27 JUMP JUMPDEST JUMPDEST PUSH1 0x0 PUSH2 0xF9B DUP5 DUP3 DUP6 ADD PUSH2 0xF62 JUMP JUMPDEST SWAP2 POP POP SWAP3 SWAP2 POP POP JUMP JUMPDEST PUSH1 0x0 DUP2 MLOAD SWAP1 POP SWAP2 SWAP1 POP JUMP JUMPDEST PUSH1 0x0 DUP3 DUP3 MSTORE PUSH1 0x20 DUP3 ADD SWAP1 POP SWAP3 SWAP2 POP POP JUMP JUMPDEST PUSH1 0x0 JUMPDEST DUP4 DUP2 LT ISZERO PUSH2 0xFDE JUMPI DUP1 DUP3 ADD MLOAD DUP2 DUP5 ADD MSTORE PUSH1 0x20 DUP2 ADD SWAP1 POP PUSH2 0xFC3 JUMP JUMPDEST PUSH1 0x0 DUP5 DUP5 ADD MSTORE POP POP POP POP JUMP JUMPDEST PUSH1 0x0 PUSH2 0xFF5 DUP3 PUSH2 0xFA4 JUMP JUMPDEST PUSH2 0xFFF DUP2 DUP6 PUSH2 0xFAF JUMP JUMPDEST SWAP4 POP PUSH2 0x100F DUP2 DUP6 PUSH1 0x20 DUP7 ADD PUSH2 0xFC0 JUMP JUMPDEST PUSH2 0x1018 DUP2 PUSH2 0xD3B JUMP JUMPDEST DUP5 ADD SWAP2 POP POP SWAP3 SWAP2 POP POP JUMP JUMPDEST PUSH1 0x0 PUSH1 0x20 DUP3 ADD SWAP1 POP DUP2 DUP2 SUB PUSH1 0x0 DUP4 ADD MSTORE PUSH2 0x103D DUP2 DUP5 PUSH2 0xFEA JUMP JUMPDEST SWAP1 POP SWAP3 SWAP2 POP POP JUMP JUMPDEST PUSH1 0x0 PUSH2 0x1050 DUP3 PUSH2 0xEC0 JUMP JUMPDEST SWAP1 POP SWAP2 SWAP1 POP JUMP JUMPDEST PUSH2 0x1060 DUP2 PUSH2 0x1045 JUMP JUMPDEST DUP3 MSTORE POP POP JUMP JUMPDEST PUSH1 0x0 PUSH1 0x20 DUP3 ADD SWAP1 POP PUSH2 0x107B PUSH1 0x0 DUP4 ADD DUP5 PUSH2 0x1057 JUMP JUMPDEST SWAP3 SWAP2 POP POP JUMP JUMPDEST PUSH2 0x108A DUP2 PUSH2 0xEE0 JUMP JUMPDEST DUP3 MSTORE POP POP JUMP JUMPDEST PUSH1 0x0 PUSH1 0x20 DUP3 ADD SWAP1 POP PUSH2 0x10A5 PUSH1 0x0 DUP4 ADD DUP5 PUSH2 0x1081 JUMP JUMPDEST SWAP3 SWAP2 POP POP JUMP JUMPDEST PUSH1 0x0 DUP2 ISZERO ISZERO SWAP1 POP SWAP2 SWAP1 POP JUMP JUMPDEST PUSH2 0x10C0 DUP2 PUSH2 0x10AB JUMP JUMPDEST DUP3 MSTORE POP POP JUMP JUMPDEST PUSH1 0x0 PUSH1 0x20 DUP3 ADD SWAP1 POP PUSH2 0x10DB PUSH1 0x0 DUP4 ADD DUP5 PUSH2 0x10B7 JUMP JUMPDEST SWAP3 SWAP2 POP POP JUMP JUMPDEST PUSH1 0x0 DUP1 PUSH1 0x40 DUP4 DUP6 SUB SLT ISZERO PUSH2 0x10F8 JUMPI PUSH2 0x10F7 PUSH2 0xD27 JUMP JUMPDEST JUMPDEST PUSH1 0x0 PUSH2 0x1106 DUP6 DUP3 DUP7 ADD PUSH2 0xF09 JUMP JUMPDEST SWAP3 POP POP PUSH1 0x20 PUSH2 0x1117 DUP6 DUP3 DUP7 ADD PUSH2 0xF09 JUMP JUMPDEST SWAP2 POP POP SWAP3 POP SWAP3 SWAP1 POP JUMP JUMPDEST PUSH32 0x4E487B7100000000000000000000000000000000000000000000000000000000 PUSH1 0x0 MSTORE PUSH1 0x11 PUSH1 0x4 MSTORE PUSH1 0x24 PUSH1 0x0 REVERT JUMPDEST PUSH1 0x0 PUSH2 0x115B DUP3 PUSH2 0xCE9 JUMP JUMPDEST SWAP2 POP PUSH2 0x1166 DUP4 PUSH2 0xCE9 JUMP JUMPDEST SWAP3 POP DUP3 DUP3 SUB SWAP1 POP DUP2 DUP2 GT ISZERO PUSH2 0x117E JUMPI PUSH2 0x117D PUSH2 0x1121 JUMP JUMPDEST JUMPDEST SWAP3 SWAP2 POP POP JUMP JUMPDEST PUSH32 0x4E487B7100000000000000000000000000000000000000000000000000000000 PUSH1 0x0 MSTORE PUSH1 0x32 PUSH1 0x4 MSTORE PUSH1 0x24 PUSH1 0x0 REVERT JUMPDEST PUSH1 0x0 DUP2 PUSH1 0x1 SHR SWAP1 POP SWAP2 SWAP1 POP JUMP JUMPDEST PUSH1 0x0 DUP1 DUP3 SWAP2 POP DUP4 SWAP1 POP JUMPDEST PUSH1 0x1 DUP6 GT ISZERO PUSH2 0x120A JUMPI DUP1 DUP7 DIV DUP2 GT ISZERO PUSH2 0x11E6 JUMPI PUSH2 0x11E5 PUSH2 0x1121 JUMP JUMPDEST JUMPDEST PUSH1 0x1 DUP6 AND ISZERO PUSH2 0x11F5 JUMPI DUP1 DUP3 MUL SWAP2 POP JUMPDEST DUP1 DUP2 MUL SWAP1 POP PUSH2 0x1203 DUP6 PUSH2 0x11B3 JUMP JUMPDEST SWAP5 POP PUSH2 0x11CA JUMP JUMPDEST SWAP5 POP SWAP5 SWAP3 POP POP POP JUMP JUMPDEST PUSH1 0x0 DUP3 PUSH2 0x1223 JUMPI PUSH1 0x1 SWAP1 POP PUSH2 0x12DF JUMP JUMPDEST DUP2 PUSH2 0x1231 JUMPI PUSH1 0x0 SWAP1 POP PUSH2 0x12DF JUMP JUMPDEST DUP2 PUSH1 0x1 DUP2 EQ PUSH2 0x1247 JUMPI PUSH1 0x2 DUP2 EQ PUSH2 0x1251 JUMPI PUSH2 0x1280 JUMP JUMPDEST PUSH1 0x1 SWAP2 POP POP PUSH2 0x12DF JUMP JUMPDEST PUSH1 0xFF DUP5 GT ISZERO PUSH2 0x1263 JUMPI PUSH2 0x1262 PUSH2 0x1121 JUMP JUMPDEST JUMPDEST DUP4 PUSH1 0x2 EXP SWAP2 POP DUP5 DUP3 GT ISZERO PUSH2 0x127A JUMPI PUSH2 0x1279 PUSH2 0x1121 JUMP JUMPDEST JUMPDEST POP PUSH2 0x12DF JUMP JUMPDEST POP PUSH1 0x20 DUP4 LT PUSH2 0x133 DUP4 LT AND PUSH1 0x4E DUP5 LT PUSH1 0xB DUP5 LT AND OR ISZERO PUSH2 0x12B5 JUMPI DUP3 DUP3 EXP SWAP1 POP DUP4 DUP2 GT ISZERO PUSH2 0x12B0 JUMPI PUSH2 0x12AF PUSH2 0x1121 JUMP JUMPDEST JUMPDEST PUSH2 0x12DF JUMP JUMPDEST PUSH2 0x12C2 DUP5 DUP5 DUP5 PUSH1 0x1 PUSH2 0x11C0 JUMP JUMPDEST SWAP3 POP SWAP1 POP DUP2 DUP5 DIV DUP2 GT ISZERO PUSH2 0x12D9 JUMPI PUSH2 0x12D8 PUSH2 0x1121 JUMP JUMPDEST JUMPDEST DUP2 DUP2 MUL SWAP1 POP JUMPDEST SWAP4 SWAP3 POP POP POP JUMP JUMPDEST PUSH1 0x0 PUSH2 0x12F1 DUP3 PUSH2 0xCE9 JUMP JUMPDEST SWAP2 POP PUSH2 0x12FC DUP4 PUSH2 0xCE9 JUMP JUMPDEST SWAP3 POP PUSH2 0x1329 PUSH32 0xFFFFFFFFFFFFFFFFFFFFFFFFFFFFFFFFFFFFFFFFFFFFFFFFFFFFFFFFFFFFFFFF DUP5 DUP5 PUSH2 0x1213 JUMP JUMPDEST SWAP1 POP SWAP3 SWAP2 POP POP JUMP JUMPDEST PUSH1 0x0 PUSH2 0x133C DUP3 PUSH2 0xCE9 JUMP JUMPDEST SWAP2 POP PUSH2 0x1347 DUP4 PUSH2 0xCE9 JUMP JUMPDEST SWAP3 POP DUP3 DUP3 MUL PUSH2 0x1355 DUP2 PUSH2 0xCE9 JUMP JUMPDEST SWAP2 POP DUP3 DUP3 DIV DUP5 EQ DUP4 ISZERO OR PUSH2 0x136C JUMPI PUSH2 0x136B PUSH2 0x1121 JUMP JUMPDEST JUMPDEST POP SWAP3 SWAP2 POP POP JUMP JUMPDEST PUSH1 0x0 PUSH2 0x137E DUP3 PUSH2 0xCE9 JUMP JUMPDEST SWAP2 POP PUSH2 0x1389 DUP4 PUSH2 0xCE9 JUMP JUMPDEST SWAP3 POP DUP3 DUP3 ADD SWAP1 POP DUP1 DUP3 GT ISZERO PUSH2 0x13A1 JUMPI PUSH2 0x13A0 PUSH2 0x1121 JUMP JUMPDEST JUMPDEST SWAP3 SWAP2 POP POP JUMP JUMPDEST PUSH32 0x4F6E6C7920746865206F776E6572206F6620746865205461736B2063616E2063 PUSH1 0x0 DUP3 ADD MSTORE PUSH32 0x616C6C20746869732066756E6374696F6E000000000000000000000000000000 PUSH1 0x20 DUP3 ADD MSTORE POP JUMP JUMPDEST PUSH1 0x0 PUSH2 0x1403 PUSH1 0x31 DUP4 PUSH2 0xFAF JUMP JUMPDEST SWAP2 POP PUSH2 0x140E DUP3 PUSH2 0x13A7 JUMP JUMPDEST PUSH1 0x40 DUP3 ADD SWAP1 POP SWAP2 SWAP1 POP JUMP JUMPDEST PUSH1 0x0 PUSH1 0x20 DUP3 ADD SWAP1 POP DUP2 DUP2 SUB PUSH1 0x0 DUP4 ADD MSTORE PUSH2 0x1432 DUP2 PUSH2 0x13F6 JUMP JUMPDEST SWAP1 POP SWAP2 SWAP1 POP JUMP JUMPDEST PUSH32 0x4E487B7100000000000000000000000000000000000000000000000000000000 PUSH1 0x0 MSTORE PUSH1 0x22 PUSH1 0x4 MSTORE PUSH1 0x24 PUSH1 0x0 REVERT JUMPDEST PUSH1 0x0 PUSH1 0x2 DUP3 DIV SWAP1 POP PUSH1 0x1 DUP3 AND DUP1 PUSH2 0x1480 JUMPI PUSH1 0x7F DUP3 AND SWAP2 POP JUMPDEST PUSH1 0x20 DUP3 LT DUP2 SUB PUSH2 0x1493 JUMPI PUSH2 0x1492 PUSH2 0x1439 JUMP JUMPDEST JUMPDEST POP SWAP2 SWAP1 POP JUMP JUMPDEST PUSH32 0x496E636F7272656374207061796D656E7420616D6F756E742073656E74000000 PUSH1 0x0 DUP3 ADD MSTORE POP JUMP JUMPDEST PUSH1 0x0 PUSH2 0x14CF PUSH1 0x1D DUP4 PUSH2 0xFAF JUMP JUMPDEST SWAP2 POP PUSH2 0x14DA DUP3 PUSH2 0x1499 JUMP JUMPDEST PUSH1 0x20 DUP3 ADD SWAP1 POP SWAP2 SWAP1 POP JUMP JUMPDEST PUSH1 0x0 PUSH1 0x20 DUP3 ADD SWAP1 POP DUP2 DUP2 SUB PUSH1 0x0 DUP4 ADD MSTORE PUSH2 0x14FE DUP2 PUSH2 0x14C2 JUMP JUMPDEST SWAP1 POP SWAP2 SWAP1 POP JUMP JUMPDEST PUSH32 0x5468697320697320796F7572207461736B3A2000000000000000000000000000 DUP2 MSTORE POP JUMP JUMPDEST PUSH1 0x0 DUP2 SWAP1 POP SWAP3 SWAP2 POP POP JUMP JUMPDEST PUSH1 0x0 DUP2 SWAP1 POP DUP2 PUSH1 0x0 MSTORE PUSH1 0x20 PUSH1 0x0 KECCAK256 SWAP1 POP SWAP2 SWAP1 POP JUMP JUMPDEST PUSH1 0x0 DUP2 SLOAD PUSH2 0x1558 DUP2 PUSH2 0x1468 JUMP JUMPDEST PUSH2 0x1562 DUP2 DUP7 PUSH2 0x152B JUMP JUMPDEST SWAP5 POP PUSH1 0x1 DUP3 AND PUSH1 0x0 DUP2 EQ PUSH2 0x157D JUMPI PUSH1 0x1 DUP2 EQ PUSH2 0x1592 JUMPI PUSH2 0x15C5 JUMP JUMPDEST PUSH1 0xFF NOT DUP4 AND DUP7 MSTORE DUP2 ISZERO ISZERO DUP3 MUL DUP7 ADD SWAP4 POP PUSH2 0x15C5 JUMP JUMPDEST PUSH2 0x159B DUP6 PUSH2 0x1536 JUMP JUMPDEST PUSH1 0x0 JUMPDEST DUP4 DUP2 LT ISZERO PUSH2 0x15BD JUMPI DUP2 SLOAD DUP2 DUP10 ADD MSTORE PUSH1 0x1 DUP3 ADD SWAP2 POP PUSH1 0x20 DUP2 ADD SWAP1 POP PUSH2 0x159E JUMP JUMPDEST DUP4 DUP9 ADD SWAP6 POP POP POP JUMPDEST POP POP POP SWAP3 SWAP2 POP POP JUMP JUMPDEST PUSH32 0xA546865736520617265206164646974696F6E616C20696E737472756374696F PUSH1 0x0 DUP3 ADD MSTORE PUSH32 0x6E7320616E6420636F6E73747261696E747320796F75206D757374206F626579 PUSH1 0x20 DUP3 ADD MSTORE PUSH32 0x3A00000000000000000000000000000000000000000000000000000000000000 PUSH1 0x40 DUP3 ADD MSTORE POP JUMP JUMPDEST PUSH1 0x0 PUSH2 0x1650 PUSH1 0x41 DUP4 PUSH2 0x152B JUMP JUMPDEST SWAP2 POP PUSH2 0x165B DUP3 PUSH2 0x15CE JUMP JUMPDEST PUSH1 0x41 DUP3 ADD SWAP1 POP SWAP2 SWAP1 POP JUMP JUMPDEST PUSH1 0x0 PUSH2 0x1671 DUP3 PUSH2 0xFA4 JUMP JUMPDEST PUSH2 0x167B DUP2 DUP6 PUSH2 0x152B JUMP JUMPDEST SWAP4 POP PUSH2 0x168B DUP2 DUP6 PUSH1 0x20 DUP7 ADD PUSH2 0xFC0 JUMP JUMPDEST DUP1 DUP5 ADD SWAP2 POP POP SWAP3 SWAP2 POP POP JUMP JUMPDEST PUSH1 0x0 PUSH2 0x16A2 DUP3 PUSH2 0x1505 JUMP JUMPDEST PUSH1 0x13 DUP3 ADD SWAP2 POP PUSH2 0x16B2 DUP3 DUP6 PUSH2 0x154B JUMP JUMPDEST SWAP2 POP PUSH2 0x16BD DUP3 PUSH2 0x1643 JUMP JUMPDEST SWAP2 POP PUSH2 0x16C9 DUP3 DUP5 PUSH2 0x1666 JUMP JUMPDEST SWAP2 POP DUP2 SWAP1 POP SWAP4 SWAP3 POP POP POP JUMP JUMPDEST PUSH1 0x0 PUSH2 0x16E8 PUSH2 0x16E3 DUP5 PUSH2 0xDC7 JUMP JUMPDEST PUSH2 0xDAC JUMP JUMPDEST SWAP1 POP DUP3 DUP2 MSTORE PUSH1 0x20 DUP2 ADD DUP5 DUP5 DUP5 ADD GT ISZERO PUSH2 0x1704 JUMPI PUSH2 0x1703 PUSH2 0xD36 JUMP JUMPDEST JUMPDEST PUSH2 0x170F DUP5 DUP3 DUP6 PUSH2 0xFC0 JUMP JUMPDEST POP SWAP4 SWAP3 POP POP POP JUMP JUMPDEST PUSH1 0x0 DUP3 PUSH1 0x1F DUP4 ADD SLT PUSH2 0x172C JUMPI PUSH2 0x172B PUSH2 0xD31 JUMP JUMPDEST JUMPDEST DUP2 MLOAD PUSH2 0x173C DUP5 DUP3 PUSH1 0x20 DUP7 ADD PUSH2 0x16D5 JUMP JUMPDEST SWAP2 POP POP SWAP3 SWAP2 POP POP JUMP JUMPDEST PUSH1 0x0 PUSH1 0x20 DUP3 DUP5 SUB SLT ISZERO PUSH2 0x175B JUMPI PUSH2 0x175A PUSH2 0xD27 JUMP JUMPDEST JUMPDEST PUSH1 0x0 DUP3 ADD MLOAD PUSH8 0xFFFFFFFFFFFFFFFF DUP2 GT ISZERO PUSH2 0x1779 JUMPI PUSH2 0x1778 PUSH2 0xD2C JUMP JUMPDEST JUMPDEST PUSH2 0x1785 DUP5 DUP3 DUP6 ADD PUSH2 0x1717 JUMP JUMPDEST SWAP2 POP POP SWAP3 SWAP2 POP POP JUMP JUMPDEST PUSH32 0x436F6D706C6574652074686520666F6C6C6F77696E67207461736B3A20000000 DUP2 MSTORE POP JUMP JUMPDEST PUSH1 0x0 PUSH2 0x17BF DUP3 PUSH2 0x178E JUMP JUMPDEST PUSH1 0x1D DUP3 ADD SWAP2 POP PUSH2 0x17CF DUP3 DUP5 PUSH2 0x154B JUMP JUMPDEST SWAP2 POP DUP2 SWAP1 POP SWAP3 SWAP2 POP POP JUMP JUMPDEST PUSH32 0x4576616C7561746520616E206167656E74277320736F6C7574696F6E20746F20 PUSH1 0x0 DUP3 ADD MSTORE PUSH32 0x74686520666F6C6C6F77696E67207461736B3A20000000000000000000000000 PUSH1 0x20 DUP3 ADD MSTORE POP JUMP JUMPDEST PUSH1 0x0 PUSH2 0x1836 PUSH1 0x34 DUP4 PUSH2 0x152B JUMP JUMPDEST SWAP2 POP PUSH2 0x1841 DUP3 PUSH2 0x17DA JUMP JUMPDEST PUSH1 0x34 DUP3 ADD SWAP1 POP SWAP2 SWAP1 POP JUMP JUMPDEST PUSH32 0xA52657475726E206F6E6C79206120677261646520696E2074686520666F726D PUSH1 0x0 DUP3 ADD MSTORE PUSH32 0x206F6620616E20696E7465676572206265747765656E203020616E6420313030 PUSH1 0x20 DUP3 ADD MSTORE PUSH32 0x207768657265203020726570726573656E74732061207465727269626C65206F PUSH1 0x40 DUP3 ADD MSTORE PUSH32 0x757470757420616E642031303020697320706572666563742E20546869732069 PUSH1 0x60 DUP3 ADD MSTORE PUSH32 0x7320746865206167656E74207375626D697373696F6E3A000000000000000000 PUSH1 0x80 DUP3 ADD MSTORE POP JUMP JUMPDEST PUSH1 0x0 PUSH2 0x191A PUSH1 0x97 DUP4 PUSH2 0x152B JUMP JUMPDEST SWAP2 POP PUSH2 0x1925 DUP3 PUSH2 0x184C JUMP JUMPDEST PUSH1 0x97 DUP3 ADD SWAP1 POP SWAP2 SWAP1 POP JUMP JUMPDEST PUSH1 0x0 PUSH2 0x193B DUP3 PUSH2 0x1829 JUMP JUMPDEST SWAP2 POP PUSH2 0x1947 DUP3 DUP6 PUSH2 0x154B JUMP JUMPDEST SWAP2 POP PUSH2 0x1952 DUP3 PUSH2 0x190D JUMP JUMPDEST SWAP2 POP PUSH2 0x195E DUP3 DUP5 PUSH2 0x1666 JUMP JUMPDEST SWAP2 POP DUP2 SWAP1 POP SWAP4 SWAP3 POP POP POP JUMP JUMPDEST PUSH32 0x4E487B7100000000000000000000000000000000000000000000000000000000 PUSH1 0x0 MSTORE PUSH1 0x12 PUSH1 0x4 MSTORE PUSH1 0x24 PUSH1 0x0 REVERT JUMPDEST PUSH1 0x0 PUSH2 0x19A4 DUP3 PUSH2 0xCE9 JUMP JUMPDEST SWAP2 POP PUSH2 0x19AF DUP4 PUSH2 0xCE9 JUMP JUMPDEST SWAP3 POP DUP3 PUSH2 0x19BF JUMPI PUSH2 0x19BE PUSH2 0x196A JUMP JUMPDEST JUMPDEST DUP3 DUP3 DIV SWAP1 POP SWAP3 SWAP2 POP POP JUMP INVALID LOG2 PUSH5 0x6970667358 0x22 SLT KECCAK256 PUSH15 0x9AC64B52E8A221A75B98140DA751B8 JUMPDEST 0x4E CODESIZE 0xBC 0xA7 LT 0xE 0xBE BLOCKHASH SIGNEXTEND SWAP14 0x4E RETURNDATACOPY PUSH25 0x606564736F6C63430008180033000000000000000000000000 "},"methodIdentifiers":{"bestAgent()":"d90e5024","bestAgentOwner()":"7c1c3439","bestScore()":"0af2f424","creationBlock()":"17634514","description()":"7284e416","evaluateAgent(address)":"ffe41b27","incentive()":"1d4632ac","incentiveBlocksDuration()":"01bc246a","incentivesFullyPaid()":"bc99cbd0","owner()":"8da5cb5b","parseString(string)":"11075499","pricePerExecution()":"03cd7834","remainingIncentive()":"3af874d7","setCriticAddress(address)":"1aee3531","submissionBlock()":"413350bd","submitAgent(address,address)":"c8dec815","testCases(uint256)":"609e67b0","useAgent(string)":"ec1a9bd8"}}}}}